{
  "contractName": "Faucet",
  "abi": [
    {
      "inputs": [
        {
          "internalType": "address",
          "name": "",
          "type": "address"
        }
      ],
      "name": "funders",
      "outputs": [
        {
          "internalType": "bool",
          "name": "",
          "type": "bool"
        }
      ],
      "stateMutability": "view",
      "type": "function",
      "constant": true
    },
    {
      "inputs": [
        {
          "internalType": "uint256",
          "name": "",
          "type": "uint256"
        }
      ],
      "name": "lutFunders",
      "outputs": [
        {
          "internalType": "address",
          "name": "",
          "type": "address"
        }
      ],
      "stateMutability": "view",
      "type": "function",
      "constant": true
    },
    {
      "inputs": [],
      "name": "numOfFunders",
      "outputs": [
        {
          "internalType": "uint256",
          "name": "",
          "type": "uint256"
        }
      ],
      "stateMutability": "view",
      "type": "function",
      "constant": true
    },
    {
      "stateMutability": "payable",
      "type": "receive",
      "payable": true
    },
    {
      "inputs": [],
      "name": "addFunds",
      "outputs": [],
      "stateMutability": "payable",
      "type": "function",
      "payable": true
    },
    {
      "inputs": [
        {
          "internalType": "uint256",
          "name": "index",
          "type": "uint256"
        }
      ],
      "name": "getFundersIndex",
      "outputs": [
        {
          "internalType": "address",
          "name": "",
          "type": "address"
        }
      ],
      "stateMutability": "view",
      "type": "function",
      "constant": true
    },
    {
      "inputs": [],
      "name": "getAllFunders",
      "outputs": [
        {
          "internalType": "address[]",
          "name": "",
          "type": "address[]"
        }
      ],
      "stateMutability": "view",
      "type": "function",
      "constant": true
    },
    {
      "inputs": [
        {
          "internalType": "uint256",
          "name": "withdrawAmount",
          "type": "uint256"
        }
      ],
      "name": "withdraw",
      "outputs": [],
      "stateMutability": "nonpayable",
      "type": "function"
    }
  ],
  "bytecode": "0x608060405234801561001057600080fd5b50610623806100206000396000f3fe6080604052600436106100745760003560e01c80632e1a7d4d1161004e5780632e1a7d4d146101035780636fbbb55d14610125578063a26759cb14610147578063af7f2c9b1461014f5761007b565b8063031b3677146100805780631f8947ea146100b65780632e1472de146100e35761007b565b3661007b57005b600080fd5b34801561008c57600080fd5b506100a061009b366004610428565b610171565b6040516100ad91906104d2565b60405180910390f35b3480156100c257600080fd5b506100d66100d1366004610456565b610186565b6040516100ad9190610471565b3480156100ef57600080fd5b506100d66100fe366004610456565b6101a1565b34801561010f57600080fd5b5061012361011e366004610456565b6101e8565b005b34801561013157600080fd5b5061013a6102db565b6040516100ad9190610485565b6101236103ad565b34801561015b57600080fd5b50610164610422565b6040516100ad91906105bd565b60026020526000908152604090205460ff1681565b6001602052600090815260409020546001600160a01b031681565b6000805482106101cc5760405162461bcd60e51b81526004016101c39061053d565b60405180910390fd5b506000908152600160205260409020546001600160a01b031690565b806000811180156102015750670de0b6b3a76400008111155b61021d5760405162461bcd60e51b81526004016101c3906104dd565b3361023a5760405162461bcd60e51b81526004016101c390610514565b4782111561025a5760405162461bcd60e51b81526004016101c390610564565b6000336001600160a01b0316836040516102739061046e565b60006040518083038185875af1925050503d80600081146102b0576040519150601f19603f3d011682016040523d82523d6000602084013e6102b5565b606091505b50509050806102d65760405162461bcd60e51b81526004016101c390610592565b505050565b60606000805467ffffffffffffffff81111561030757634e487b7160e01b600052604160045260246000fd5b604051908082528060200260200182016040528015610330578160200160208202803683370190505b50905060005b6000548110156103a75760008181526001602052604090205482516001600160a01b039091169083908390811061037d57634e487b7160e01b600052603260045260246000fd5b6001600160a01b03909216602092830291909101909101528061039f816105c6565b915050610336565b50905090565b3360008181526002602052604090205460ff1661041f5760008054908190806103d5836105c6565b90915550506001600160a01b0382166000818152600260209081526040808320805460ff191660019081179091559483529390529190912080546001600160a01b03191690911790555b50565b60005481565b600060208284031215610439578081fd5b81356001600160a01b038116811461044f578182fd5b9392505050565b600060208284031215610467578081fd5b5035919050565b90565b6001600160a01b0391909116815260200190565b6020808252825182820181905260009190848201906040850190845b818110156104c65783516001600160a01b0316835292840192918401916001016104a1565b50909695505050505050565b901515815260200190565b60208082526019908201527f496e76616c6964207769746864726177616c20616d6f756e7400000000000000604082015260600190565b6020808252600f908201526e496e76616c6964206164647265737360881b604082015260600190565b6020808252600d908201526c092dcecc2d8d2c840d2dcc8caf609b1b604082015260600190565b602080825260149082015273496e73756666696369656e742062616c616e636560601b604082015260600190565b60208082526011908201527015da5d1a191c985dd85b0819985a5b1959607a1b604082015260600190565b90815260200190565b60006000198214156105e657634e487b7160e01b81526011600452602481fd5b506001019056fea2646970667358221220fd64282b4cdbc5e7b11abd53d9007c1ea8be94be4e716ffae40510b908b7fa1564736f6c63430008000033",
  "immutableReferences": {},
  "source": "// SPDX-License-Identifier: MIT\npragma solidity >=0.4.25 <0.9.0;\n\ncontract Faucet {\n\n    uint256 public numOfFunders;\n    mapping (uint256 => address) public lutFunders;\n    mapping (address => bool) public funders;\n\n    receive() external payable {}\n\n    function addFunds() external payable {\n        address funder = msg.sender;\n\n        if (!funders[funder]) {\n            uint256 index = numOfFunders;\n            numOfFunders++;\n            funders[funder] = true;\n            lutFunders[index] = funder;\n        }\n    }\n\n    function getFundersIndex(uint256 index) external view returns (address) {\n        require(index < numOfFunders, \"Invalid index\");\n        return lutFunders[index];\n    }\n\n    function getAllFunders() external view returns (address[] memory) {\n        address[] memory _funders = new address[](numOfFunders);\n\n        for (uint256 i = 0; i < numOfFunders; i++) {\n            _funders[i] = lutFunders[i];\n        }\n\n        return _funders;\n    }\n\n   function withdraw(uint256 withdrawAmount) external limitWithdraw(withdrawAmount) {\n        require(msg.sender != address(0), \"Invalid address\");\n        require(withdrawAmount <= address(this).balance, \"Insufficient balance\");\n\n        (bool success, ) = payable(msg.sender).call{value: withdrawAmount}(\"\");\n        require(success, \"Withdrawal failed\");\n    }\n\n   modifier limitWithdraw(uint256 withdrawAmount) {\n        require(withdrawAmount > 0 && withdrawAmount <= 1 ether, \"Invalid withdrawal amount\");\n        _;\n    }\n}\n",
  "sourcePath": "/Users/finns/Desktop/myProject/faucet/contracts/Faucet.sol",
  "compiler": {
    "name": "solc",
    "version": "0.8.0+commit.c7dfd78e.Emscripten.clang"
  },
  "schemaVersion": "3.4.14",
  "updatedAt": "2023-07-29T17:17:23.893Z",
  "networkType": "ethereum",
  "devdoc": {
    "kind": "dev",
    "methods": {},
    "version": 1
  },
  "userdoc": {
    "kind": "user",
    "methods": {},
    "version": 1
  }
}