{
  "contractName": "Faucet",
  "abi": [
    {
      "inputs": [],
      "stateMutability": "nonpayable",
      "type": "constructor"
    },
    {
      "inputs": [],
      "name": "owner",
      "outputs": [
        {
          "internalType": "address",
          "name": "",
          "type": "address"
        }
      ],
      "stateMutability": "view",
      "type": "function"
    },
    {
      "stateMutability": "payable",
      "type": "receive"
    },
    {
      "inputs": [
        {
          "internalType": "uint256",
          "name": "amount",
          "type": "uint256"
        }
      ],
      "name": "withdraw",
      "outputs": [],
      "stateMutability": "nonpayable",
      "type": "function"
    }
  ],
  "bytecode": "0x608060405234801561001057600080fd5b50600080546001600160a01b031916331790556101ec806100326000396000f3fe60806040526004361061002d5760003560e01c80632e1a7d4d146100395780638da5cb5b1461005b57610034565b3661003457005b600080fd5b34801561004557600080fd5b50610059610054366004610125565b610086565b005b34801561006757600080fd5b50610070610116565b60405161007d919061013d565b60405180910390f35b478111156100af5760405162461bcd60e51b81526004016100a690610151565b60405180910390fd5b6000546001600160a01b031633146100d95760405162461bcd60e51b81526004016100a69061017f565b600080546040516001600160a01b039091169183156108fc02918491818181858888f19350505050158015610112573d6000803e3d6000fd5b5050565b6000546001600160a01b031681565b600060208284031215610136578081fd5b5035919050565b6001600160a01b0391909116815260200190565b602080825260149082015273496e73756666696369656e742062616c616e636560601b604082015260600190565b60208082526017908201527f4f6e6c79206f776e65722063616e20776974686472617700000000000000000060408201526060019056fea26469706673582212207d04bdc976a26e8a39e72d97a34668043f486fc1cac0f63b8e8b90117ea0f66264736f6c63430008000033",
  "immutableReferences": {},
  "source": "// SPDX-License-Identifier: MIT\npragma solidity >=0.4.25 <0.9.0;\n\ncontract Faucet {\n    address public owner;\n    \n    constructor() {\n        owner = msg.sender;\n    }\n\n    receive () external payable {}\n\n     function withdraw(uint256 amount) public {\n        require(amount <= address(this).balance, \"Insufficient balance\");\n        require(msg.sender == owner, \"Only owner can withdraw\");\n        \n        payable(owner).transfer(amount);\n    }\n}\n",
  "sourcePath": "/Users/finns/Desktop/myProject/faucet/contracts/Faucet.sol",
  "compiler": {
    "name": "solc",
    "version": "0.8.0+commit.c7dfd78e.Emscripten.clang"
  },
  "schemaVersion": "3.4.16",
  "updatedAt": "2023-11-05T08:46:02.551Z",
  "devdoc": {
    "kind": "dev",
    "methods": {},
    "version": 1
  },
  "userdoc": {
    "kind": "user",
    "methods": {},
    "version": 1
  }
}